:03000000020028D3
:03000300022003D5
:03000B0002200BC5
:03001300022013B5
:03001B0002201BA5
:0300230002202395
:1000280075FFFF902026E493B45509A3E493B4AA7E
:070038000302200002003C5E
:1020000002202802200EE478DEF622026726D2148F
:1020100032C322024B1A78F2E61454031866C370D6
:0620200001D322025B5116
:1020280090000A7401F078FFE4F6D8FD75815F022C
:1020380052EA12010002EF0201408C0D4101020335
:10204800010200010A060002EF0201400100090234
:102058009605080100C032080B000701002000099E
:10206800040000010101200009240100020A5901AD
:1020780000112402010101001200000000000040CC
:1020880000001124020201010013000000000000FA
:1020980040000011240203010100140000000000A8
:1020A8000040000011240204010200150203000090
:1020B8000000440000112402050306001602030074
:1020C8000000004400001124020605060017020360
:1020D800000000004400000C2403070103000D1257
:1020E8000400000C2403080506000E130400000C6D
:1020F8002403090203000F140400000C24030A013E
:10210800010010150000000C24030B01010011163A
:102118000000000C24030C01010006170000002A2F
:1021280024060D01030000000C0000000C00000054
:102138000C0000000C0000000C0000000C00000067
:102148000C0000000C000000001224060E02030020
:1021580000000000000000000000001224060F0329
:10216800030000000C0000000C0000000012240610
:102178001004033000000C0000000C0000000012E6
:102188002406110503000000000000000000000004
:102198000008240A120307000008240A1303070092
:1021A8000008240A140307000008240A150307007E
:1021B8000008240A160307000008240A170007006D
:1021C8000007058F0306000409040100000102202E
:1021D8000409040101020102200010240101050183
:1021E80001000000020300000000062402010210A2
:1021F8000705050568000108250100000000000723
:1022080005851104000409040102020102200010DE
:10221800240101050101000000020300000000067E
:102228002402010318070505059C00010825010083
:1022380000000000070585110400040904010302D9
:1022480001022000102401010501010000000433EF
:102258000000000006240201021007050505D00051
:10226800010825010000000000070585110400048D
:1022780009040104020102200010240101050101E2
:1022880000000004330000000006240201031807C0
:1022980005050538010108250100000000000705B3
:1022A800851104000409040105020102200010241C
:1022B8000101050101000000063F0000000006249E
:1022C8000201021007050505380101082501000073
:1022D8000000000705851104000409040106020135
:1022E80002200010240101050101000000063F0042
:1022F80000000006240201031807050505D40101A2
:1023080008250100000000000705851104000409E4
:102318000401070201022000102401010501010047
:102328000000083F0600000006240201021007050D
:102338000505A0010108250100000000000705852A
:1023480011040004090401080201022000102401FC
:1023580001050101000000083F06000000062402F4
:102368000103180705050570020108250100000092
:102378000000070585110400040904020000010299
:1023880020050904020102010220001024010205AF
:1023980001010000000203000000000624020102FF
:1023A8001007050605680001082501000000000067
:1023B8000705861104000409040202020102200034
:1023C80010240102050101000000020300000000C2
:1023D800062402010318070506059C0001082501CB
:1023E8000000000000070586110400040904020328
:1023F80002010220001024010205038113000002DB
:102408000300000000062402030210070506056801
:1024180000010825010000000000070586110400DE
:102428000409040300000102200B0904030102014E
:10243800022000102401030501010000000203002E
:1024480000000006240201021007050705680001C4
:102458000825010000000000070587110400040991
:1024680004030202010220001024010305010100F7
:1024780000000203000000000624020103180705FB
:1024880007059C00010825010000000000070587DA
:1024980011040004090404000001022006090404D0
:1024A8000101010220001024010A050101000000B9
:1024B8000203000000000624020102100705890536
:1024C8006800010825010000000000090404020159
:1024D800010220001024010A050101000000020386
:1024E80000000000062402010318070589059C0066
:1024F8000108250100000000000904050000010290
:1025080020090904050101010220001024010B051E
:10251800010100000002030000000006240201027D
:102528001007058805680001082501000000000063
:102538000904050201010220001024010B05010114
:10254800000000020300000000062402010318072F
:102558000588059C00010825010000000000090409
:1025680006000001022007090406010101022000FB
:102578001024010C05010100000002030000000006
:1025880006240201021007058A05680001082501D2
:1025980000000000000904060201010220001024C6
:1025A800010C0501010000000203000000000624E0
:1025B8000201031807058A059C000108250100008F
:1025C800000000080B0701030000000904070001D0
:1025D80003000000092100010001223200070584E0
:1025E8000310000409021703080100C032080B0099
:1025F800070100200009040000010101200009244E
:102608000100020A41010011240201010100120027
:102618000000000000400000112402020101001324
:102628000000000000004000001124020301010026
:102638001400000000000040000011240204010200
:1026480000150203000000004400001124020503E5
:1026580006001602030000000044000011240206D0
:10266800050600170203000000004400000C2403C4
:10267800070103000D120400000C240308050600DE
:102688000E130400000C2403090203000F140400B5
:10269800000C24030A01010010150000000C24039B
:1026A8000B01010011160000000C24030C010100AD
:1026B80006170000001224060D01030000000C009C
:1026C80000000C000000001224060E0203000000A7
:1026D8000000000000000000001224060F030300A1
:1026E80000000C0000000C0000000012240610047A
:1026F800033000000C0000000C000000001224064B
:1027080011050300000000000000000000000008A0
:10271800240A120307000008240A1303070000080C
:10272800240A140307000008240A150307000008F8
:10273800240A160307000008240A170007000007E8
:10274800058F0306000109040100000102200409A5
:102758000401010201022000102401010501010009
:102768000000020300000000062402010210070511
:102778000505C800010825010000000000070585BF
:1027880011030001090402000001022005090402E6
:1027980001020102200010240102050101000000CD
:1027A80002030000000006240201021007050605C6
:1027B800C800010825010000000000070586110374
:1027C800000109040202020102200010240102058E
:1027D8000381130000020300000000062402030224
:1027E8001007050605C800010825010000000000C3
:1027F8000705861103000109040300000102200BEC
:10280800090403010201022000102401030501014B
:102818000000000203000000000624020102100765
:10282800050705C80001082501000000000007058C
:1028380087110300010904040000010220060904AD
:10284800040101010220001024010A050101000011
:102858000002030000000006240201021007058997
:1028680005C8000108250100000000000904050052
:1028780000010220090904050101010220001024B9
:10288800010B0501010000000203000000000624FE
:102898000201021007058805C8000108250100008B
:1028A80000000009040600000102200709040601CF
:1028B80001010220001024010C05010100000002A2
:1028C800030000000006240201021007058A05C85B
:1028D80000010825010000000000080B07010300A3
:1028E800000009040700010300000009210001009D
:1028F80001223200070584031000011201000200C2
:102908000000408C0D41110203010200010A06007B
:1029180002000000400100090281040A0100C032DF
:102928000904000000010100080A240100013E001A
:102938000201020C24020201010002030000000C43
:102948002402060506000203000000092403080506
:1029580006000E000924030C01010006000A2406E3
:102968000E02010100000009040100000102000537
:10297800090401010201020000072401020101000B
:102988001724020102021005007D0044AC0080BB40
:1029980000885801007701090506058801040086AA
:1029A8000725010100000009058601030004050050
:1029B80009040102020102000007240102010100CA
:1029C8001724020102031805007D0044AC0080BBF7
:1029D80000885801007701090506054C02040086A5
:1029E8000725010100000009058601030004050010
:1029F8000904010302010200000724010201012069
:102A08001724020302021005007D0044AC0080BBBD
:102A18000088580100770109050605880104008629
:102A280007250101000000090586010300040500CF
:102A38000904020000010200070904020101010261
:102A480000000724010C01010011240201020210F8
:102A580003007D0044AC0080BB0009058A05C8005E
:102A6800040000072501010000000904030000011B
:102A78000100030A240100014E000204050C24028F
:102A880001010100083F0600000C240205030600AE
:102A98000203000000092403070103000D000924B4
:102AA800030B01010011001024060D0101010202AF
:102AB800020202020202000A2406110501010000B6
:102AC80000090404000001020004090404010201D1
:102AD800020000072401010101001724020102027B
:102AE8001005401F00803E00007D0044AC0080BB04
:102AF8000009050505C80004008507250101000037
:102B08000009058501030004050009040402020107
:102B18000200000724010101010017240201040238
:102B28001005401F00803E00007D0044AC0080BBC3
:102B3800000905050590010400850725010100002D
:102B480000090585010300040500090404030201C6
:102B580002000007240101010100172402010602F6
:102B68001005401F00803E00007D0044AC0080BB83
:102B78000009050505580204008507250101000024
:102B88000009058501030004050009040404020185
:102B980002000007240101010100172402010802B4
:102BA8001005401F00803E00007D0044AC0080BB43
:102BB800000905050520030400850725010100001B
:102BC800000905850103000405000904050000014A
:102BD8000200090904050101010200000724010B94
:102BE8000101002024020102021008401F00803E5B
:102BF80000007D0044AC0080BB0000FA008858014A
:102C080000770109058805880104000007250101EE
:102C18000000000904050201010200000724010B5D
:102C28000101002024020102031808401F00803E11
:102C380000007D0044AC0080BB0000FA0088580109
:102C4800007701090588054C0204000007250101E9
:102C580000000009040600000101000A0A2401001E
:102C68000148000207080C240203010100020300C6
:102C780000000C24020401020002030000000924E1
:102C880003090203000F000924030A0101001000D0
:102C98000A24060F0301010202000A240610040197
:102CA8004102020009040700000102000B090407A1
:102CB800010201020000072401030101002024028F
:102CC8000102021008401F00803E00007D0044AC55
:102CD8000080BB0000FA0088580100770109050749
:102CE8000588010400870725010100000009058700
:102CF800010300040500090407020201020000079D
:102D08002401030101002024020102031808401FC6
:102D180000803E00007D0044AC0080BB0000FA004B
:102D2800885801007701090507054C020400870748
:102D380025010100000009058701030004050009B9
:102D4800040800000102000609040801010102004C
:102D5800000724010A0101001724020102021005DC
:102D6800401F00803E00007D0044AC0080BB00098D
:102D7800058905C8000400000725010100000009B5
:102D880004090001030000000921000100012232AA
:102D9800000705840310000409027A030A0100C031
:102DA800320904000000010100080A240100013E64
:102DB800000201020C2402020101000203000000CB
:102DC8000C2402060506000203000000092403087B
:102DD8000506000E000924030C01010006000A2460
:102DE800060E0201010000000904010000010200B2
:102DF8000509040101020102000007240102010182
:102E0800000E2402010202100244AC0080BB00093B
:102E1800050605C800010086072501010000000914
:102E280005860103000105000904010202010200F0
:102E380000072401020101000E2402010203180206
:102E480044AC0080BB00090506052C01010086077B
:102E5800250101000000090586010300010500099C
:102E68000401030201020000072401020101200EEF
:102E78002402030202100244AC0080BB00090506CC
:102E880005C8000100860725010100000009058624
:102E980001030001050009040200000102000709FE
:102EA80004020101010200000724010C0101000EC7
:102EB8002402010202100244AC0080BB0009058A0A
:102EC80005C80001000007250101000000090403EE
:102ED8000000010100030A24010001480002040562
:102EE8000C24020101010002030000000C24020569
:102EF8000306000203000000092403070103000D74
:102F0800000924030B01010011000A24060D010128
:102F1800010202000A24061105010100000009044B
:102F28000400000102000409040401020102000077
:102F3800072401010101000E2402010202100244CB
:102F4800AC0080BB0009050505C800010085072500
:102F580001010000000905850103000105000904BD
:102F680004020201020000072401010101000E24ED
:102F780002010203180244AC0080BB0009050505E4
:102F88002C010100850725010100000009058501C4
:102F980003000105000904050000010200090904F5
:102FA800050101010200000724010B0101000E24A4
:102FB80002010202100244AC0080BB00090588052A
:102FC800C8000100000725010100000009040502EE
:102FD80001010200000724010B0101000E24020177
:102FE8000203180244AC0080BB00090588052C01C7
:102FF8000100000725010100000009040600000186
:1030080001000A0A2401000148000207080C2402F2
:103018000301010002030000000C24020401020065
:103028000203000000092403090203000F00092419
:10303800030A01010010000A24060F03010102021D
:10304800000A2406100401410202000904070000D6
:103058000102000B09040701020102000007240114
:10306800030101000E2402010202100244AC008098
:10307800BB0009050705C8000100870725010100F5
:103088000000090587010300010500090407020281
:1030980001020000072401030101000E24020102BD
:1030A80003180244AC0080BB00090507052C010188
:1030B80000870725010100000009058701030001B9
:1030C80005000904080000010200060904080101BE
:1030D800010200000724010A0101000E2402010276
:1030E80002100244AC0080BB0009058905C8000134
:1030F8000000072501010000000904090001030080
:103108000000092100010001223200070584031094
:103118000001000403090401320343002D004D009F
:103128006500640069006100200045006C006500CE
:103138006300740072006F006E0069006300730022
:10314800200049006E0063002E0002400355005322
:1031580000420032002E003000200048006900675D
:103168000068002D005300700065006500640020B1
:1031780000540072007500650020004800440020DB
:103188000041007500640069006F000328035500C2
:103198005300420032002E0030002000410075002C
:1031A800640069006F002000440065007600690033
:1031B8006300650004100353007000650061006B34
:1031C8000065007200051A035300500044004900CE
:1031D800460020004F0075007400700075007400F0
:1031E800061C034D006900630072006F00700068E0
:1031F800006F006E006500200049006E000718038C
:1032080053005000440049004600200049006E0069
:1032180070007500740008380355005300420032EE
:10322800002E003000200044006900670069007427
:103238000061006C00200041007500640069006FA7
:1032480000200044006500760069006300650009FD
:1032580010034C0069006E006500200049006E00F4
:103268000A2C0355005300420032002E0030002083
:103278000048006500610064007300650074002068
:10328800004400650076006900630065000B1403C4
:103298004800650061006400700068006F006E00FF
:1032A80065000C260355005300420032002E003002
:1032B8000020004D004900440049002000440065FA
:1032C800007600690063006500050C0901A101157D
:1032D80000250109E909EA75019502810209E20957
:1032E80000810609009504810226FF00090075087F
:1032F800950F8102090095109102C0900006E02008
:10330800E40302368D9000077410F07FE07E00120F
:1033180065FE8E098F0A7FE27E001265FE8E0F8F92
:10332800107FE47E001265FE8E0D8F0E200D33E5B2
:103338000830E02E900041E09000401237D8650C2C
:103348007004E50B651A601AD20D85090B850A0C05
:1033580020100F30150CE50A2440789CF6E4350956
:1033680018F6201233E50830E12E900043E0900073
:10337800421237D865147004E513651A601AD21220
:10338800850F1385101420100F30150CE5102440FC
:103398007881F6E4350F18F6201134E50830E22F6D
:1033A800900045E0FE9000441237D965127004E59C
:1033B80011651A601AD211850D11850E1220100F91
:1033C80030150CE50E244078A3F6E4350D18F620E8
:1033D8000D030234BB7F0812368E123740789B12D9
:1033E8003854E50A9FE5099E4041E50A9FF51BE52B
:1033F800099EF51AC3E50A950CE509950B500E12BE
:10340800378FCEC313CE13D8F9F51B8E1A12383363
:1034180060031236CEE51B451A6053123708400385
:103428001237961236BE1237528043C3789CE695FF
:103438000AF51B18E69509F51AD3E50A950CE5096E
:10344800950B400E12378FCEC313CE13D8F9F51B48
:103458008E1A12383360031236CEE51B451A600EF9
:1034680012370840031237961236BE12376CE51B26
:10347800451A603930100F30150C1236AC900030F8
:10348800F0E51BA380161236AC9000301236DCC370
:1034980033CE33CED8F91237E2900031F0E51AA3D3
:1034A800F0E4900033F090003D04F0800690003D79
:1034B8007408F02012030235A07F0A12368E1237E4
:1034C800407880123854E5109FE50F9E4041E51082
:1034D8009FF51BE50F9EF51AC3E5109514E50F95AA
:1034E80013500E12378FCEC313CE13D8F9F51B8E97
:1034F8001A12383E60031236CEE51B451A60531285
:10350800370840031237961236BE1237528043C32B
:103518007881E69510F51B18E6950FF51AD3E51096
:103528009514E50F9513400E12378FCEC313CE13A3
:10353800D8F9F51B8E1A12383E60031236CEE51BF9
:10354800451A600E12370840031237961236BE121B
:10355800376CE51B451A603A30100F30150C1236DF
:10356800AC900034F0E51BA380161236AC90003402
:103578001236DCC333CE33CED8F91237E290003599
:10358800F0E51AA3F0E4900037F090003D7402F0E3
:10359800800690003D7410F020110302368D7F0BD9
:1035A8007E001266E5EF12374078A2123854E50E15
:1035B8009FE50D9E4041E50E9FF51BE50D9EF51A12
:1035C800C3E50E9512E50D9511500E12378FCEC337
:1035D80013CE13D8F9F51B8E1A1238496003123628
:1035E800CEE51B451A60531237084003123796126E
:1035F80036BE1237528043C378A3E6950EF51B18E2
:10360800E6950DF51AD3E50E9512E50D9511400EC8
:1036180012378FCEC313CE13D8F9F51B8E1A123872
:103628004960031236CEE51B451A600E1237084072
:10363800031237961236BE12376CE51B451A603FE7
:1036480030100F30150C1236AC900038F0E51BA383
:10365800801C1236ACFF33333354F89000381236DE
:10366800E2C333CE33CED8F91237E2900039F0E511
:103678001AA3F0E490003BF090003D7404F022900F
:10368800003D7420F0227E001266E5EF22E5462513
:10369800E024D5F582E43469F583E493FD7B007A70
:1036A80000791522E51E75F003A42427F582E43479
:1036B8006AF583E49322E51E75F003A42425F582B8
:1036C800E4346AF58322AE1AAF1B7C00123FC88E21
:1036D8001A8F1B22FF33333354F8F0EF54E0FFC442
:1036E800135407FD7C00E51BAE1A780322431A0227
:1036F8007D06AE1CAF1D7C00123FB68E1C8F1D22AE
:10370800D3E51B9402E51A940022431A02E51DAE84
:103718001C780322E54675F009A42470F582E43488
:1037280069F583E4932275F005A424F6F582E43460
:1037380069F583E49322E515131313541FF51E222C
:10374800E51A4410FCAD1B7E0022C3740193951B3F
:10375800F51BE493951AF51A2278827602740A25E5
:103768001EF51E22740193251BF51BE493351AF5EB
:103778001A22751510E4F516F51A227402251DF59E
:103788001DE4351CF51C22E51BAE1A780522751AB6
:1037980000751B0222AF15126378751C008F1D225D
:1037A80075F005A424F5F582E43469F583E49322E1
:1037B80075F005A424F4F582E43469F583E49322D2
:1037C80075F005A424F3F582E43469F583E49322C3
:1037D800FEE0FDEEF51AEDF51B22FFEE4CF51AEFB3
:1037E8004DF51B22751A00751B8622751A00751B6C
:1037F8008722E51A4410FCAD1B7E00222402F51D29
:10380800E43EF51C22751550E4F516F51A22751AD2
:1038180000751BA422751A00751BA522E51DAE1C98
:10382800780222AF1EE6FEA807082285090B850A42
:103838000C7882E6FD22850F1385101478A1E6FD29
:1038480022850D11850E12789EE6FD22E6FE08E619
:10385800FFD322751A04751BA022751A04751BA1C3
:1038680022751A04751BA222751A00751BA3227BE8
:10387800007A00791675510122AD1DAC1C7E00221C
:10388800124C6CE53C5460706C30170FE53D24F722
:10389800600724FE6003023A56D322E53D24F8600F
:1038A8005114604B14604214604224056003023ACC
:1038B80056E53C541F6401702D124C0EE540C39F21
:1038C8005024124C20124BDF124BED90000B12408B
:1038D8001DE94A7002C322124C19C003C002C0017C
:1038E80090000B023A180248C80260C50257360217
:1038F8005E0C026696E53C546064206003023A2A36
:10390800E53C541F6401704B124C0EE540C39F50B8
:1039180042124C20124BDF124BED30171B90001156
:1039280012401DE94A7002C322124C19C003C0029A
:10393800C001900011023A1890000E124C05E94A95
:103948007002C322124C19C003C002C00190000EBD
:10395800023A18E53C541F64026003023A28F51E37
:10396800124C0EE51EC39F5065E4F515E55624106C
:10397800124BDA124C6012401D900004123F55FFA2
:10398800E515C39F503F90000512401D75F00AE5EC
:1039980015124C65123F5565407026E556241012E5
:1039A8004BDA124C6012401D90000512401DE515BF
:1039B80075F00AA429F9EA35F08B52F55389548039
:1039C80004051580A7124C7D7004051E8092124CC8
:1039D8007D7002C32230171D124C19900007124047
:1039E8001DE94A7002C322124C19C003C002C0016B
:1039F800900007801B124C1990000412401DE94AE0
:103A08007002C322124C19C003C002C00190000406
:103A180012401D89828A83D001D002D003024077E8
:103A2800C322E53C54606440702430170FE55624E7
:103A38001C124C41124BE44A7011C322E55624195A
:103A4800124C41124BE44A7002C322024073C32253
:103A58008F4A8D4B7F05125F3D8F15E54B4515123B
:103A68003BFC12373EE51512404D3AA4003AA9082E
:103A78003AAE103AB6183ABB203AC0283AC8303A9B
:103A8800CD383A94403A9C4800003AD5751A0475E6
:103A98001BA88015751A04751BA9800D12385B8048
:103AA800081238628003123869751524802112388B
:103AB800708008123816800312381D751525800F7E
:103AC8001237EC80031237F37515268002C322E5FE
:103AD8004B540624FE601224FE601624FE600A245D
:103AE80006701478827601800E123761431A0280BC
:103AF80006123761431A031236A57551017D067FF8
:103B08003012551B1236A57551017D097F301255AB
:103B18001B1236A57551017D0C7F3012551B1236CC
:103B2800A57551017D0F7F3012551B123C054410BD
:103B3800123C0E7F60123748126659123C0554EF4A
:103B4800123C0EAD4A7F097E0012654EE54A1460AC
:103B58000C1460191460282403703B801E7882E6D8
:103B680025E0F67414251EF51E7DD880227882E69D
:103B780075F003A4F67428251EF51E7DE4801078E0
:103B880082E625E025E0F6743C251EF51E7DE47FDF
:103B9800C17E0012654E30100A301507E51E906A86
:103BA800438005E51E906A9393FD7F1A7E00126597
:103BB8004E30100A301507E51E906A438005E51E51
:103BC800906A9393789B760008F690003D7408F00D
:103BD800900041E0FE900040E0FDEEF50BEDF50CA5
:103BE8007F087E001266E5EF4401123BFCE4FF12F9
:103BF80066A5D322FD7F087E0012654E227F617E76
:103C0800001266E5EF22FD7F617E0012654E228F6D
:103C18004A8D4B7F88125F3D8F15E54B4515123D48
:103C28009912379D30101230150F123715CEC31365
:103C3800CE13D8F91238048003123783E5151240E1
:103C48004D3C7B003C83083C8B103C98183CA420DE
:103C58003CB0283CBC303CC8383C6B403C73480006
:103C6800003CDC751A00751BA8801E751A00751BB0
:103C7800A98016751A00751BA0800E751A00751B91
:103C8800A18006751A00751BA2123D8754FC803A64
:103C9800123870123D87440154FD802E12381612D6
:103CA8003D90440154FD802212381D123D9044017C
:103CB80054FD80161237EC123DA254FE4402800ACD
:103CC8001237F3123DA254FE4402FD7FB37E001268
:103CD800654E8002C322E54B540624FE601D24FE77
:103CE800602524FE60102406702E123824C333CEBB
:103CF80033CED8F9801E1236F5801D123712C33321
:103D0800CE33CED8F9800D431A03123715C333CEFC
:103D180033CED8F9F51D8E1C123DAB4410123DB4BC
:103D28007F681237FA126659123DAB54EF123DB450
:103D3800AD4A7F0D7E0012654EE54A24FE601414DC
:103D4800601824027022E51D25E0F51DE51C33F5F9
:103D58001C80157D031236FA800E123824C333CE28
:103D680033CED8F9F51D8E1C7F1012388112665992
:103D78007F0C7E001266E5EF4401123D99D3227F45
:103D8800B37E001266E5EF227FB37E001266E5EF90
:103D980022FD7F0C7E0012654E227FB37E001266E4
:103DA800E5EF227F697E001266E5EF22FD7F697EDE
:103DB8000012654E22900006E020E003023E4F7597
:103DC8003901E4F51E125D2FFFE51E7C007B0024FF
:103DD8003CF9EC3400FAEF123F82051EE51EB408E8
:103DE800E4E543F544E542F545C213C216E4F53B64
:103DF800C2171238885047E4F53AC3E5459538E5C7
:103E08004495375006AE44AF458004AE37AF388E80
:103E1800378F38EF900008F0E537900009F09000F0
:103E2800077408F0E538453770057539048018E5DA
:103E38003C30E705753902800E753903800990001A
:103E480007740CF0E4F539E5396403704F90000607
:103E5800E030E148125D3C4005751508800385385F
:103E680015E4F51EE51EC395155016125D2FAB34EB
:103E7800AA35A936851E82758300123F94051E80D7
:103E8800E3125D02E53845377012D21712388850B0
:103E980005E4F53A8003753A02753904E539640298
:103EA800707A900006E030E273125D3C40057515AB
:103EB800088003853815E4F51EE51EC39515504C9A
:103EC800301614E53BB4010FE51EC394045008E511
:103ED8001E901002938023301317E53B7013E51EE4
:103EE800B4010E2413F582E43400F5837407F080DE
:103EF80017AB34AA35A936125D26FF7413251EF5B3
:103F080082E43400F583EFF0051E80AD125D0205F2
:103F18003BE53845377005F53A753904E539B40499
:103F280012900006E030E30BE53A4408900007F0F1
:103F3800E4F53922BB010689828A83E0225002E730
:103F480022BBFE02E32289828A83E49322BB010C0E
:103F5800E58229F582E5833AF583E0225006E925D2
:103F680082F8E622BBFE06E92582F8E222E58229EC
:103F7800F582E5833AF583E49322BB010689828AB8
:103F880083F0225002F722BBFE01F322F8BB010D99
:103F9800E58229F582E5833AF583E8F0225006E9BF
:103FA8002582C8F622BBFE05E92582C8F222EF8DDC
:103FB800F0A4A8F0CF8CF0A428CE8DF0A42EFE2279
:103FC800BC000BBE0029EF8DF084FFADF022E4CCDD
:103FD800F875F008EF2FFFEE33FEEC33FCEE9DECA6
:103FE800984005FCEE9DFE0FD5F0E9E4CEFD22EDEC
:103FF800F8F5F0EE8420D21CFEADF075F008EF2F36
:10400800FFED33FD4007985006D5F0F222C398FD26
:104018000FD5F0EA22BB010DE58229F582E5833A46
:10402800F5830240825007E92582F8024079BBFEF9
:1040380007E92582F802408BE58229F582E5833A73
:10404800F583024094D083D082F8E493701274010F
:1040580093700DA3A393F8740193F5828883E47396
:104068007402936860EFA3A3A380DF8A838982E444
:1040780073E6FB08E6FA08E6F922E0FBA3E0FAA3F8
:10408800E0F922E2FB08E2FA08E2F922E493FB7481
:104098000193FA740293F9228F4A7F89125F3D8F48
:1040A80015E54A45151241DC12379D3010123015BE
:1040B8000F123715CEC313CE13D8F9123804800364
:1040C800123783E51512404D410200410A0841129A
:1040D80010411A18412220412A28413230413D38E6
:1040E80040F24040FA480000414812377A751BA850
:1040F800805012377A751BA9804812377A751BA031
:10410800804012377A751BA1803812377A751BA246
:10411800803012380D751B83802812380D751B846A
:10412800802012380D751B8580187515907516201E
:104138001237EC800D7515907516201237F3800232
:10414800C3221236A57551017D047F9A12551B12A0
:1041580038777D057F9A12551BE54A540624FE6080
:104168001D24FE602524FE60102406702E123824BB
:10417800C333CE33CED8F9801E1236F5801D1237E0
:1041880012C333CE33CED8F9800D431A0312371534
:10419800C333CE33CED8F9F51D8E1C1241E5441039
:1041A800FD7F6B7E0012654E7F6A1237FA126659E0
:1041B8001241E554EFFD7F6B7E0012654E7F1212AF
:1041C80038811266597F0E7E001266E5EF440112AF
:1041D80041DCD322FD7F0E7E0012654E227F6B7E6E
:1041E800001266E5EF228F4A7F07125F3D8F15E5C3
:1041F8004A451512431712373EE51512404D42380D
:1042080000423D08424210424A18424F2042542878
:10421800425C3042613842284042304800004269DE
:10422800751A04751BA88015751A04751BA9800DCD
:1042380012385B80081238628003123869751610CC
:1042480080211238708008123816800312381D75C4
:104258001611800F1237EC80031237F3751612808F
:1042680002C322E54A540624FE601224FE60182484
:10427800FE600A24067018789E76018012789E12D5
:104288003763431A028008789E123763431A031271
:1042980038777D027F9E12551B124320441012432B
:1042A800297F6212374812665912432054EF12438D
:1042B8002930100A301507E51E906A438005E51E6F
:1042C800906A9393FD7F1E7E0012654E30100A306F
:1042D8001507E51E906A438005E51E906A9393785A
:1042E800A2760008F690003D7420F0900045E0FEAC
:1042F800900044E0FDEEF511EDF5127F0B7E001203
:1043080066E5EF44011243177F021266A5D322FD2A
:104318007F0B7E0012654E227F637E001266E5EFFA
:1043280022FD7F637E0012654E22E4F51E124A9B31
:10433800124AC86007051EE51EB406F1E51EB4065C
:1043480002C322E53C30E768E53D64017026124A65
:104358005B124A76B48A04789F800574A6251EF8F5
:10436800E6F515AF151262DC124ADD7D047C0012F9
:104378006712D322E53D64026003024474301521BC
:10438800124A5B124A76FF648A6004EFB406087B1F
:10439800FF7A6879EC80067BFF7A6879A27D4A808B
:1043A800087BFF7A6979367D1A7C00126712D3225E
:1043B800E53D640160030244742017030244681257
:1043C80063048F1574A6251EF8A615124A5B900083
:1043D80001124A797003024472124A5B124A762427
:1043E800FA6023146032247F605214603D14605ECA
:1043F8002485707612647B124A5B900001124A7918
:10440800FF124EA5806412625D124A5B9000011291
:104418004A79FF12585E8052126496124A5B9000E5
:1044280001124A79FF1258BD80401265C3124A5BD7
:10443800900001124A79FF125D46802E1265AF1274
:104448004A5B900001124A79FF125C79801C126461
:104458005F124A5B900001124A79FF125D89800A57
:10446800124ADD7D047C00126712D322C3228F4AD0
:104478007F8A125F3D8F15E54A451512459412371C
:104488009D300F0FE515789F667008FE12459D5404
:10449800F780077E0012459D4408FD7FC27E00120A
:1044A800654E30101230150F123715CEC313CE13C8
:1044B800D8F91238048003123783E51524F86021EF
:1044C80024F8602224F8602324F8602724F8602860
:1044D80024F8602924F8602A2438702B12385B806D
:1044E800281238628023123869801E751A04751BD9
:1044F800A38016123816801112381D800C1237EC62
:1045080080071237F38002C322E54A540624FE606E
:104518001D24FE602524FE60102406702E12382407
:10452800C333CE33CED8F9801E1236F5801D12372C
:1045380012C333CE33CED8F9800D431A0312371580
:10454800C333CE33CED8F9F51D8E1C1245A44410C2
:104558001245ADE51A4410FCAD1B7F6C7E00126657
:10456800591245A454EF1245ADAD1DAC1C7F147E05
:10457800001266597D017F787E0012654E7F0F7E9E
:10458800001266E5EF4401124594D322FD7F0F7EA9
:104598000012654E227FC21266E5EF227F6D7E0013
:1045A8001266E5EF22FD7F6D7E0012654E228F4A6E
:1045B8007F06125F3D8F15E54A547F45151246BEAA
:1045C8007F737E001266E5EF54F8F51612373EE564
:1045D8001524F8601A24F8601B24F0601C24F86085
:1045E8001D24F8601E24F8601F24387020802043A2
:1045F8001604801B431601801643160680114316C5
:1046080002800C43160780074316038002C322ADBD
:10461800167F737E0012654EE54A540624FE60122A
:1046280024FE600E24FE600A2406700B78A1760131
:10463800800578A1123763E54A7F747E0030E70869
:104648001266E5EF442380081266E5EF54DD440165
:10465800FD7F747E0012654E30100A301507E51E86
:10466800906A438005E51E906A9393FD7F1C7E0047
:1046780012654E30100A301507E51E906A43800512
:10468800E51E906A93937880760008F690003D7452
:1046980010F0900043E0FE900042E0FDEEF513EDCF
:1046A800F5147F0A7E001266E5EF44011246BE7FCC
:1046B800011266A5D322FD7F0A7E0012654E228F65
:1046C800463018117401A807088002C333D8FC7853
:1046D800A046F68012AF467401A807088002C333CB
:1046E800D8FCF478A056F6E5469069EC9324F2607D
:1046F8006114607814700302478C1470030247A693
:10470800240460030247CD7FB37E00301808126688
:10471800E5EF444080061266E5EF54BFFD7FB37EA7
:104728000012654EE4F546123695754C817F3012BD
:10473800532F301805431580800353157F12369583
:104748007551817F3012551B0546E546C3940840D4
:10475800D6227FE77E003018081266E5EF44028013
:10476800061266E5EF54FDFD7FE7805430180575A5
:1047780015D880037515C01236A57551817D047F43
:104788009E02551B30180A1247CE4410FD7FC58083
:104798002F200E311247CE54EFFD7FC580223018EE
:1047A8000F7FC57E001266E5EF4401FD7FC58010CE
:1047B800200E127FC57E001266E5EF54FEFD7FC510
:1047C8007E0012654E227FC57E001266E5EF22123A
:1047D80066117D107F657E0012654E7D407FE67E06
:1047E8000012654E7FC01248C17FC21248C17DCDFC
:1047F8007F2E7E0012654E7D037F107E0112654E6E
:104808007D267F297E0012654E301007E4FD7F1655
:10481800FE80067DC07F167E0012654E7D497C02B3
:104828007F187E00126659E4FD7F20FE12654EC295
:104838000DC212C2117F217E001266E5EF4440FDD1
:104848007F217E0012654E90003C741DF012659B1E
:10485800124F4D300E07A20E9217125601E4F51EA4
:1048680078A012382B8002C313D8FC139218AF1EFD
:104878001246C7051EE51EC3940540E4E4F51E78FC
:104888009D12382B8002C313D8FC139218AF1E1246
:104898006020051EE51EC3940140E4E4F51EE51EF4
:1048A80025E02483F8E6FC08E6FDAF1E125AB3059E
:1048B8001EE51EC3940C40E622E4FDFE12654E225E
:1048C800E53F24FE602814604824FD6072147003DC
:1048D80002496924066003024993124C76124BE19F
:1048E8007D127C00126712301B02D216D322E556C5
:1048F8002406124BDAC003C002C001E55624061292
:104908004BDA124C49FDEEFCEDD001D002D0038009
:1049180049AF3E125B02124C7D7002C322AB52E5D6
:10492800542401F9E43553FAC002C001AA53A9542A
:10493800900001123F55FD7C00D001D002801B126F
:104948004C76A3A3A3124BE1EA494B6012124C76B2
:10495800A3A3A3124BE17D0A7C00126712D322C3E2
:1049680022124BD6EA494B6020124BD6C003C00234
:10497800C001124BD6124C49FDEEFCEDD001D0021D
:10498800D003126712D213D322C322C322E4F51E26
:10499800124AD62468F582E43469F583E493B54174
:1049A80012124AD62469F582E43469F583E49365E2
:1049B8003E6007051EE51EB40CD6E51EB40C02C306
:1049C80022E53C30E76AE53D64017017AF1E1266C8
:1049D800C18E1A8F1BEFF524E51AF525124ADD7DE5
:1049E800028046E53D64027068752401F525124A87
:1049F800D6246AF582E43469124ABFF526EEF52713
:104A0800124AD6246CF582E43469124ABFF528EEBE
:104A1800F529124AD6246EF582E43469124ABFF5A4
:104A28002AEEF52B124ADD7D087C00126712D3228C
:104A3800E53D6401701B30170EE525AD24FCE52427
:104A4800AF1E125AB380087D02124A85126712D32C
:104A580022C322E51E25E025E02451F582E43469CD
:104A6800F583E493FB740193FA740293F92290009E
:104A78000512401D023F3CE433F5247D017B007A9A
:104A88000079247C002278B4760208760008760340
:104A980022F524E51E25E025E022F525EEF526E49D
:104AA800F527F528F5297D06FB7A007924FC227480
:104AB800A6251EF8E6FD22F583E493FE74019322F1
:104AC8002450F582E43469F583E493654122E51EB8
:104AD80075F009A4227B007A00792422E51E75F07E
:104AE80003A42490F582E434682278B0760408762A
:104AF800000876332278B0760608760008763F22DA
:104B080078B0760808760608763F22E4F608F608B4
:104B1800F622C0E0C083C082C0D075D000C0079024
:104B28000020E0FF30E008D2019000227401F0EF8D
:104B380030E108D2029000227402F0EF30E208D28D
:104B4800059000227404F0EF30E308D203900022AD
:104B58007408F0EF30E408D2069000227410F0EFE9
:104B680030E508D2089000227420F0EF30E608D231
:104B78000A9000227440F0EF30E708D20B90002230
:104B88007480F0900021E0FF30E008D20990002303
:104B98007401F0EF30E108D2079000237402F0EFBF
:104BA80030E208D2009000237404F0EF30E308D21A
:104BB800049000237408F0EF30E408D20C9000232E
:104BC8007410F0D007D0D0D082D083D0E032E55630
:104BD8002409F582E43555F583E493FB740193FACF
:104BE800740293F922E54075F003A4F58285F083F9
:104BF80012401D8B528A53895422900001AB52AA4D
:104C080053A95402401D855682855583740F93FF1E
:104C180022AB52AA53A95422E5822410F582E43526
:104C28008322900001123F552401FDE433FCED2559
:104C380054F554EC3553F55322F582E43555F58394
:104C480022900003123F55FE900002023F5590004B
:104C58000112401DEA494B2275F003E51EA4F582B6
:104C680085F08322755200755300755400228556CD
:104C78008285558322E55345544552227B007A00AC
:104C88007924E4FDFC228B468A478948E53E600387
:104C9800024D43E53F64016003024D43E54564036B
:104CA80045446003024D43E53D64016003024D4302
:104CB80090000112401D90000112401D123F3CF56A
:104CC80015AB46AA47A948123F3C24FA6020146055
:104CD8002C247F603714604314604F2485705A1267
:104CE8006304AD077F051253ABAF15025DCC1263A9
:104CF80004AD077F061253ABAF150264B11263040B
:104D0800AD077F071253ABAF150265EB126304AD15
:104D1800077F881253ABAF15026571126304AD07A4
:104D28007F891253ABAF150266F1126304AD077F9A
:104D38008A1253ABAF150266FCC322C322E4F51EE8
:104D480012653F2468F582E43469F583E493B5413C
:104D58001212653F2469F582E43469F583E49365AA
:104D68003E6007051EE51EB40CD6E51EB40C02C352
:104D780022E53D1460582480603A24FE60131460D4
:104D88001C2402706912653F246AF582E434698044
:104D98001612653F246CF582E43469800A12653F77
:104DA800246EF582E43469F583E493FE740193F587
:104DB80024EE800EAF1E1266C18E1A8F1BEFF524EB
:104DC800E51AF5257D02126536126712D3223017CF
:104DD8000EE525AD24FCE524AF1E125AB3800D7BE9
:104DE800007A0079247D027C00126712D322C32244
:104DF8008B468A478948900004123F556401600237
:104E0800C322E53D64016003024EA3E53E60030250
:104E18004EA3E5416003024EA3E53F24FE60221441
:104E280060652402707590000112401DEA494B60CC
:104E380010AB46AA47A94890000112401D7D018089
:104E480042AB46AA47A948123F3CF515E4F51AF5C6
:104E58001BF51EE51ED39515501974017E00A81E7A
:104E6800088005C333CE33CED8F9421BEE421A056B
:104E78001E80E0752402E51BF525E51AF526124A81
:104E8800DD7D037C00800F752401E4F525F526F50A
:104E9800277D04124AB0126712D322C3228F49E435
:104EA800F51E124A5B124A7664056007051EE51E68
:104EB800B406EFE51EB40602C322124AB77F0512F4
:104EC80053AB30156EE54914B408005076904EE3A4
:104ED80075F003A4C58325F0C58373024EFB024E0B
:104EE800FD024F07024F0E024F17024F20024F29B3
:104EF800024F32804378B0124A907D06E480401217
:104F08004AF2E4FD8005124AF27D067F01803112E3
:104F18004AFDE4FD7F028028124AFD7D067F02805B
:104F28001F124B08E4FD7F038016124B087D067F95
:104F380003800DE54914700B78B0124A90E4FDFF28
:104F4800023A58C3227515C01236A5124FD77515E7
:104F5800401236A5124FD71236A5754C817D087FB1
:104F68009E12532FE515B440127FB37E001266E5FA
:104F7800EF4404FD7FB37E0012654E75158112362D
:104F8800A5124FE27515941236A57551817D037FE0
:104F98003012551B7515011236A57551817D047F98
:104FA8003012551B7515101236A57551817D027F7B
:104FB8003012551B7515801236A5124FE2E4F5150F
:104FC800FB7A0079157551817D027F9A02551B7510
:104FD80051817D087F9E12551B227551817D017F6D
:104FE8003012551B227F717E001266E58F15E5157C
:104FF80030E34F30E41F200F04D20F804A125E893D
:10500800789FE66F604C125E89789FA6077BFF7ACF
:105018006A79E38038300F0DC20F7BFF7A6A79E92D
:105028007D061261CB7F727E001266E5EF30E007E5
:10503800E4FD7F72FE80067D017F727E0012654E60
:105048008010300F0DC20F7BFF7A6A79E97D061256
:1050580061CB300F127F8A125F3D789FE6B5070754
:1050680012507D54F7800512507D4408FD7FC27EA2
:105078000012654E227FC27E001266E5EF228B4643
:105088008A478948900004123F5564016002C32290
:10509800E53E6038124A7624FA6016146018247FB8
:1050A800601E14601614601D2485701EAF3E024EEB
:1050B800A5AF3E02585EAF3E0258BDAF3E025D4608
:1050C800AF3E025C79AF3E025D89C322AB46AA4778
:1050D800A948124A7624FA601914601E247F6028B1
:1050E8001460221460252485702478B0124B1302B2
:1050F800647B78B4124B1302625DE478B8F608F664
:1051080008F60264960265C30265AF02645FC322B3
:10511800E53C64407026E53DB4010A125FA54003F2
:105128000251A8800BE53D64077075125FA55070A9
:105138007B007A007924AD45AC44805FE53C64C0CF
:10514800705EE53D64027016125F76125F99126612
:10515800E5125F82C3941040F2125F8E803DE53DF8
:1051680064047016125F76125F99126737125F82B5
:10517800C3941040F2125F8E8021E53D64087020D0
:10518800853E15F51EE515251EFFE4338F82F58350
:10519800E0FF125F82B410ED125F8E126712D32205
:1051A800C322E53C30E77BE53D64017075F51E12CE
:1051B8004A9B242AF582E43468124ACF6007051E08
:1051C800E51EB406EAE51EB40602C322E53E7020D9
:1051D800124A9B242BF582E43468F583E493124A3F
:1051E80099242CF582E43468124ABF124AA2802B13
:1051F800E53EF4702B124AE4124A68C003C002C0AC
:1052080001124AE4124A68123F3C75F008A42401CE
:10521800FDE435F0FCD001D002D0031267128004FF
:10522800C322C322D3228C578D588A598B5AA90777
:105238007FD87E001266E5C3E5589410E5579400C0
:105248005016AD5AAC597FD8125BC94557FCE55882
:105258004FFD7FDA7E008019E558AD5AFC7FD87E75
:1052680000125BC9FCAD07E557540FFFED4FFD7FFA
:10527800DA126659E4F557F5587FD17E001266E5D3
:10528800A907E920E0110558E55870020557C394AD
:10529800C8E557940040E2E954F7FD7FD17E00123B
:1052A800654E7FD80266E5026423E493A3F8E4938D
:1052B800A34003F68001F208DFF48029E493A3F801
:1052C8005407240CC8C333C4540F4420C883400473
:1052D800F456800146F6DFE4800B01020408102032
:1052E8004080905426E47E019360BCA3FF543F3075
:1052F800E509541FFEE493A360010ECF54C025E0D6
:1053080060A840B8E493A3FAE493A3F8E493A3C88D
:10531800C582C8CAC583CAF0A3C8C582C8CAC5831E
:10532800CADFE9DEE780BE8D488B498A4A894BACE3
:1053380007EC4401FD7F907E0012654EAD480F12C8
:10534800654E7C82E54C30E703430408E54C30E6C3
:1053580003430410534C0FAD4C7F9B1265467F9C52
:10536800125BB530E7127F9C1266E5EF30E0EF7D07
:10537800407F9C12654EC322E4F548E548C3954C2E
:10538800501FE5482493FFE433FE1266E5AB49AAB3
:105398004AA94B854882758300EF123F94054880DF
:1053A800DAD3228D4AEF24FA601F146025247F6027
:1053B8002A1460301460362485703E7F05125F3DE4
:1053C8007F081254027F08802B7F0A1254027F0A3A
:1053D80080227F0B12540E7F0B80197F0C12540E03
:1053E8007F0C80107F0E12541A7F0E80077F0F12D9
:1053F800541A7F0F7E0012654E227E001266E5EF7A
:105408005487454AFD227E001266E5EF5487454AD7
:10541800FD227E001266E5EF5487454AFD22188377
:105428000000000000000000000000000000000074
:10543800000000000000000001A000C10E019D0155
:10544800C10F019F1018AF01000000020000000307
:105458000000000402000305020003060200030620
:10546800A6101010101010C119011F00C19A01F7E1
:105478000001FD0001FC0003F9000000C11BC1018F
:10548800C102C105C103C106C108C10BC10AC109D6
:10549800C107C100C104C10C00E53D24F6607004D9
:1054A800706FE53FB40102D322E53F640270627871
:1054B800CCE6FE08E6FDEEF51AEDF51B08E6C3940A
:1054C800095004E6FF80027F0978CEA607E51BF4A1
:1054D800451A701508E6FE08E6FDEE78D8F6ED08E0
:1054E800F678CEE678DAF68024E4F51EE51EC37871
:1054F800CE9650197E00E51B251EFFEE351AFE7468
:10550800CF251EF8E6FD12654E051E80DFD322D397
:1055180022C3228F4C8B4E8A4F8950AC05AD4C7FED
:1055280090126546754C80E55130E703434C08E519
:105538005130E603434C1053510FAD517F9B7E0011
:1055480012654EE4FCECC39551501CEC2493FFE427
:1055580033FEAB4EAA4FA9508C82758300123F557B
:10556800FD12654E0C80DEAD4C7F9C7E0012654EB0
:105578007F9C125BB530E7127F9C1266E5EF30E046
:10558800EF7D407F9C12654EC322D322E53E600327
:10559800F47064E4F51EE51E25E024F1F582E43498
:1055A80069F583E493B54113E51E25E024F2F582FD
:1055B800E43469F583E493653E6007051EE51EB48F
:1055C80001D4E51EB40102C322E53D146011248014
:1055D8007025AF1E126669126530126712D3223029
:1055E800170DE52424FF9218AF1E126020800612C2
:1055F8006534126712D322C32230170F12564D4456
:105608001112565612565F4480802D7F0312667819
:10561800400812564D54EF1256567F0412667840D1
:10562800127FC57E001266E5EF54FEFD7FC57E0041
:1056380012654E12565F547FFD7FB37E0012654E91
:10564800A217920E227FC57E001266E5EF22FD7F2B
:10565800C57E0012654E227FB37E001266E5EF22FA
:10566800E53D6401705FF51EE51E25E024F1F58235
:10567800E43469F583E493B54113E51E25E024F28B
:10568800F582E43469F583E493653E6007051EE519
:105698001EB401D4E51EB40102C322E53C30E70D77
:1056A800AF1E126669124A7F126712D32230170D95
:1056B800E52424FF9218AF1E1260208006124A8348
:1056C800126712D322C322E53C6440705FE53D6453
:1056D800017028125F76AF1E7E00C3EF9545EE95E8
:1056E800445016E51B2FFFEE351AFE7424251EF8CC
:1056F800E6FD12654E051E80DDD322E53D64077088
:105708002B853E15F51EC3E51E9545E49544501AB4
:105718007424251EF8E6FFE51EFDE5152DFDE4338E
:105728008D82F583EFF0051E80DCD322C32278FE3C
:10573800E6605E124C0EE540C39F5055124C201295
:105748004BDF124BED124C566047124C19123F3C7E
:10575800FFE53ED39F503A90000812401DE94A7079
:1057680002801E124C19C003C002C001900008122A
:10577800401D89828A83D001D002D003124077501D
:1057880010124C02E53E123F82124C84126712D36B
:1057980022C32230141D123DBD7F047E001266E52F
:1057A800EF30E20F7D237F067E0012654E900007E2
:1057B800740CF0300B1AC20BE4F539D21478FEF6EB
:1057C80090000AE030E304C2158002D2151260FC92
:1057D800300807C208D214126623300607C206C270
:1057E80014126635300405C204122006300C05C2B6
:1057F8000C12673F22E5419068129324FE601B1447
:10580800602124FD603C2405704AE53FB40403028E
:105818005BEDE53F6402703C8006E53F640270344E
:105828000251AAE53FB40105C2170259C3E53FB4C6
:105838000205C217024995E53F64077017C21702AF
:105848005668E53FB40105C217024332E53FB4028A
:1058580003025C34C3228F49E4F51E124A5B124AE4
:105868007664066007051EE51EB406EFE51EB4065D
:1058780002C322124AB77F061253AB30151DE54901
:1058880024FE600914600D240270288017124A8EC5
:105898007F06801C124A8E7F808015E54924FE60B1
:1058A8000A04700F124A8EE4FF8005124A8E7F8028
:1058B8000245B6C3228F49E4F51E124A5B124A76A6
:1058C80064076007051EE51EB406EFE51EB4060270
:1058D800C322124AB77F071253AB301521E549247A
:1058E800FE600914600F24027023801778B8124AEA
:1058F800907F06801578B8124A907F04800CE5499D
:10590800B4010A78B8124A90E4FF0241EEC3227843
:10591800F8E6FFD394F740091264E7EF604A02649F
:105928004178F8E6D3947F400D18E6B4F008126782
:105938002F76F7125A1378F8E6FFD3947F400718AA
:10594800A607E478FCF678F7E6FF600808E6FE129A
:10595800672FA606EF601178F7E6FF1264E778FC78
:10596800E6C39F4003125A1322E53E6003F47049D0
:10597800E4F51EE51E9069EC9365416007051EE598
:105988001EB405EFE51EB40502C322E53D146011FF
:1059980024807025AF1E126678126530126712D304
:1059A8002230170DE52424FF9218AF1E1246C78037
:1059B80006126534126712D322C322E53E704AE507
:1059C8003D64017044F51EE51E9069EC93654160E5
:1059D80007051EE51EB405EFE51EB40502C322E562
:1059E8003C30E70DAF1E126678124A7F126712D359
:1059F8002230170DE52424FF9218AF1E1246C780E7
:105A080006124A83126712D322C32278F7E6FF12DE
:105A180064E7EF6045900026E020E31B125F0190E9
:105A2800002CEFF078F9E6A3F008E6A3F008E6A367
:105A3800F0900025745DF0E478FBF618F618F67817
:105A4800FCF678F7E6FFC394F0500512672FA60717
:105A5800EFD394F04004E478F7F622E53D24F760AC
:105A68001914603724097041E53FB40105125FAF8E
:105A7800800DE53F640270318017E53FB4010C7B6F
:105A8800007A0079DB7D107C008019E53F640270A4
:105A980018FB7A0079C87D10FC80097B007A0079B0
:105AA80024E4FDFC126712D322C3228F46EF25E0BF
:105AB8002483F8A60408A6058C1A8D1B12371C64CB
:105AC800027005126500801612371C6403700512F7
:105AD80063C1800A12371C6404701E1263E5E54630
:105AE80025E024D4F582E43469F583E493FFE546A0
:105AF80012369775518112551B22301B1D7552FFA6
:105B0800755310755410124C19124C50B4030B12E3
:105B18003F3C6F6033124C2A80ECE556240C124C43
:105B280041E493FB740193FA7402938B528A53F500
:105B380054124C19124C50B4030B123F3C6F6008BE
:105B4800124C2A80EC124C6C22C0E0C0D075D000F8
:105B5800C000C001C00730991F79F1E778F266608C
:105B680013E6FF24F3F8E6F599EF04540378F2F608
:105B7800C21A8002D21AC29930981178EBE624ED45
:105B8800F8A69978EB06E65403F6C298D007D00138
:105B9800D000D0D0D0E032AC06EF900000F09000FA
:105BA80027ECF0900001E054FBF0227FA47E001265
:105BB80066E5EF227D027FA312654E7D800F0265A8
:105BC8004E126659E975F010A4FFE5F0441022AAB8
:105BD80006EF900000F0EA900027F022AD077FA5BD
:105BE8007E0002654EE53C30E73EE53D64017038D5
:105BF800E53E7034F51E124A9B24AFF8E541666015
:105C080007051EE51EB406EEE51EB40602C3221201
:105C18004A9B24B0F8E6124A9924B1F8E6FE08E651
:105C2800124AA21267128002C322D322E53C30E74F
:105C38003EE53D64017038E53E7034F51E124A9B1E
:105C4800124AC86007051EE51EB406F1E51EB40633
:105C580002C322124A5B124A76B48A08200F05E46E
:105C6800F5248003752401124A83126712D322C3D4
:105C7800228F49E4F51E124A5B124A76648860074F
:105C8800051EE51EB406EFE51EB40602C322124A3D
:105C9800B77F881253AB301510E54924FE60050420
:105CA8007012800A7D06E48007E549B40106E4FD28
:105CB800FF023C17C322E53E703E900004123F5598
:105CC80064016002C32290000512401D123F3C246B
:105CD800FA6014146014247F6013146013146013A2
:105CE8002485701202647B02625D0264960265AFCD
:105CF8000265C302645FC322D3229000077408F0D0
:105D0800AF157E00C3E5389FF538E5379EF537EFC8
:105D18002536F536EE3535F53522FFE433FE851E9A
:105D280082758300023F55740B251EF582E434000A
:105D3800F583E022D3E5389408E5379400228F49AB
:105D4800E4F51E124A5B124A7664896007051EE56F
:105D58001EB406EFE51EB40602C322124AB77F89B5
:105D68001253AB30150FE54924FE6005047010800E
:105D7800097F068007E549B40105E4FF0240A0C396
:105D8800228F49E4F51E124A5B124A76648A60073C
:105D9800051EE51EB406EFE51EB40602C322124A2C
:105DA800B77F8A1253AB30150FE54924FE6005040E
:105DB800701080097F068007E549B40105E4FF02F9
:105DC8004476C3228F49301524E54924FE600C141B
:105DD800600F14601224037029801BE4FD7F01808A
:105DE8001EE4FD7F028018E4FD7F038012E549244C
:105DF800FE600804700CE4FDFF80047D06E4FF02E9
:105E08003A58C32278FEA63EE660187D017F057EDB
:105E18000012654EE5562413124C41124BE44A60B9
:105E28001A8015E4FD7F05FE12654EE5562416120C
:105E38004C41124BE44A6003124073124C841267BF
:105E480012D3227D337FF47E0012654E7DB87FFC2D
:105E58007E0012654E7FB47E001266E5EF4480FD39
:105E68007FB47E0012654E7DFF7FB57E0012654EC1
:105E78007D2F7FB17E0012654EE4FD7FB3FE026583
:105E88004E7F7B7E001266E5EF540F24FD601924D7
:105E9800FB601824FE601714601714601724FE6056
:105EA80016240E70157F08227F00227F20227F286B
:105EB800227F18227F30227F38227F1022E53E7011
:105EC80036E53F64017030E545640345447028E5D4
:105ED8003D6481700E123F3CFF125F3D8F151262C8
:105EE800DC8005E53DB4010F7B007A0079247D0351
:105EF8007C00126712D322C32278F7E6FFC394F01E
:105F08005006EFC4540FFF2278F7E6FEB4F0147879
:105F1800FCE6FF24F8F8E6B4F70280027F00EF24DD
:105F280004FF22EEC394F8500978FCE6906CCD93F8
:105F3800FF227F0F22EF24FA6015146016247F6079
:105F480016146017146018248570207F0880127F4B
:105F58000A800E7F0B800A7F0C80067F0E80027FEE
:105F68000F7E001266E5EF5478FF227F1022E53F8E
:105F7800F51AE53EF51BE4F51E227424251EF8A645
:105F880007051EE51E227B007A0079247D107C001F
:105F9800227E00E51B251EFFEE351AFE22D3E545BD
:105FA8009410E54494002278D8E6FC08E6FDEC78E5
:105FB800DFF6AF05EF08F678DAE678E1F6E4F51EE5
:105FC800E51EC378DA965017E51E1826FFE4183642
:105FD800FE1266E574E2251EF8A607051E80E1227A
:105FE800E5419068129324FA602224037028E53F63
:105FF800B40105D2170259C3E53FB40205D217020E
:106008004995E53FB4070FD217025668E53FB4013A
:1060180005D217024332C3223018147401A80708A6
:106028008002C333D8FC789D46F675151880137422
:1060380001A807088002C333D8FCF4789D56F6758A
:10604800151C1236A57551817D097F9A02551B12C0
:1060580020164031900028E0540F906CD193FF78BF
:10606800FDE6FED39F501374282EF582E43400F524
:1060780083E0FF12658678FD0622E478FDF690003D
:1060880024E04401F022E4F51E7E007B0074DB2549
:106098001EF9EE3400FAE4123F82051EE51EB41024
:1060A800E8E4F51E74C8251EF8E4F6051EE51EB4DE
:1060B80010F278D876000876B00876042278FEE6E2
:1060C8006030124C0EE540C39F5027124C20124BF3
:1060D800DF124BED124C566009124C027D017C0018
:1060E800800BE4F524FB7A0079247D01FC12671209
:1060F800D322C3227FB07E001266E5EF30E413D2CC
:10610800107BFF3015067A6B79E180177A6C79007D
:106118008011C2107BFF3015067A6C793D80047AB5
:106128006C795C1261FE02608E126707400A126584
:10613800D778F8A607125917300019C20090002620
:10614800E05407FFBF040678FD760180079000241D
:10615800E04401F078FDE660031260572212330331
:10616800E51FD3941E4028E4F51F124FEDE50860A3
:106178001E7FB37E001266E58F15E51530E50454E1
:10618800DF8004E5154420FD7FB37E0012654E22B2
:106198008B468A4789488D49E4F51EE51EC3954913
:1061A8005015E51E2430AB46AA47A948125D22FDCA
:1061B80012654E051E80E4E5494420FD7F487E00B7
:1061C80002654E8B468A4789488D49E4F51EE51ECF
:1061D800C395495015E51E2440AB46AA47A9481265
:1061E8005D22FD12654E051E80E4E5494410FD7FE1
:1061F800497E0002654EAE02AF018E558F56E4F51A
:106208001E124C0EE51EC39F501B124C20124BDF72
:10621800E51E124BEF124C566007124C02E4123F77
:1062280082051E80DC22758901758C63758AC075AC
:10623800881175A80775B805D2AF7FB57E001266BC
:10624800E5EF60F6125E4B1264CCD2107BFF7A6BDE
:1062580079E10261FE7F7412627E7F747E001265AE
:106268004E7F0A12627E7F0A7E0012654E7F0112FF
:10627800639DC212D3227E001266E5EF54FEFD2212
:10628800E541906BB79324FD701EE53FB40105C24C
:1062980017025971E53FB40205C217024D45E53FA3
:1062A800B40705C217025594C322E541906BB79312
:1062B80024FD701EE53FB40105D217025971E53F70
:1062C800B40205D217024D45E53FB40705D21702BF
:1062D8005594C322E4FEEE12372E6F60040EBE0AF8
:1062E800F5BE0A027E02EE1237A8F524EE1237B880
:1062F800F525EE1237C8F526E4F52722E4FFEF125C
:1063080037A8B5240FEF1237B8B52508EF1237C8EC
:10631800652660040FBF0AE6BF0A027F02EF123744
:106328002EFF227FB07E001266E58F15E515540713
:1063380078DBF6E51530E309B219A219921712565F
:106348000178DEE64402F60266B3E53F24DF601119
:1063580014701C7BFF7A3279D19028FAE493FD807F
:10636800087BFF7A2879F37D097C00126712D32213
:10637800E4F51EE51E12372E6F6007051EE51EB4F4
:106388000AF1E51E75F005A424F7F582E43469F5F1
:1063980083E493FF227401A807088002C333D8FC62
:1063A800F45208E50870117FB3FE1266E5EF442049
:1063B800FD7FB37E0012654E22E4B51B09E51AB4D1
:1063C80080047515FF22AE1AAF1BEF7807CEA2E73F
:1063D80013CE13D8F8FFC3E49FFF8F1522E4B51B33
:1063E80009E51AB4800475152822E51BAE1A78074A
:1063F800CEC313CE13D8F9543FF51522AC05125B62
:10640800E4EC4480FD7FA012654E125BBC125BB3C6
:1064180020E7FA7FA17E001266E52212622E30097B
:1064280005C20912632B300505C20512671D1257F4
:106438009B3014EA12616580E5900026E020E3169F
:1064480090002C740FF078F8E6A3F0E4A3F0A3F022
:10645800900025745DF022E4FD7F78FE12654E7F82
:106468000F7E001266E5EF54FEFD7F0F7E00126579
:106478004ED3227F087E001266E5EF54FEFD7F08AA
:106488007E0012654EE4FF12639DC20DD3227F0B7E
:106498007E001266E5EF54FEFD7F0B7E0012654E0E
:1064A8007F0212639DC211D322EF24FE600B146099
:1064B8000C2402700DE4FF80067F0680027F8002B4
:1064C80045B6C322E4F539C21478FEF6901000935D
:1064D800B44309A3E493B44D03D21B22C21B22EF99
:1064E800C394F0EF500AC4540F906CAF93FF800729
:1064F800540F906CBE93FF22E4B51B09E51AB480D3
:10650800047515FF22AE1AEEFFC3E49FFF8F152214
:10651800AC03AB05125BE4AD037FA0126548125BC8
:10652800BC125BB320E7FA22E433F5247D017B003B
:106538007A0079247C0022E51E75F009A4227E00E9
:1065480012654EAD040F125BD7900002ED125BAAE4
:106558007404F02212647B12625D1264961265AFB5
:106568001265C312645F02659BEF24FE6007047026
:106578000BE4FD80037D06E4FF023C17C32278F19B
:10658800E624F3F8A60778F106E65403F6301A0273
:10659800D29922E4F5087FB3FE1266E5EF4420FDA8
:1065A8007FB37E0002654E7F0C7E001266E5EF54D5
:1065B800FEFD7F0C7E0012654ED3227F0E7E0012F8
:1065C80066E5EF54FEFD7F0E7E0012654ED32278FD
:1065D800ECE6FF24EDF8E6F515EF04540378ECF645
:1065E800AF1522EF24FE6007047009E4FF80027FE4
:1065F800060241EEC322125B9F741CF0900005E076
:10660800FE900004E0FDEDFF227F217E001266E58A
:10661800EF4404FD7F217E0002654E78FEE6600CA3
:106628007D3B7FFB7E0012654E1247D72278FEE63F
:10663800600C12655C7DBB7FFB7E0012654E227F7D
:10664800B37E001266E5EF54DFFD7FB37E0002657E
:106658004E125BD7ED900002F0A3125BA97414F000
:1066680022789DE6FEA807088002C313D8FC1322EF
:1066780078A0E6FEA807088002C313D8FC1322906E
:106688000024740AF0900025745AF00266D97B0041
:106698007A0079FE7D017C00126712D3227401A86A
:1066A80007088002C333D8FC420822125FAF7B0080
:1066B8007A0079DB7D10026198EF25E02483F8E603
:1066C800FE08E6FF227D3B7FFB7E0012654E0247F7
:1066D800D7E478F2F618F678ECF618F622125B9FF3
:1066E800740CF0900004E0FF22EF147005E4FF0240
:1066F80040A0C322EF147005E4FF024476C3227958
:10670800EBE778EC66C37001D3228B348A3589367F
:106718008C378D382278DEE64401F60266B3758A36
:10672800C0758C63051F3278FCE60624F9F8228FC1
:10673800828E83E493FF22228FFF67860000000089
:10674800000005FF679A00000000000006FF67AE22
:1067580000000000000007FF67C200000000000002
:1067680088FF67D600000000000089FF67EA000084
:10677800000000008AFF67FE000000000000000023
:10678800000001FF6740000000000000FF57FDFF08
:106798005FE8080000AD01FF674AFF50860000006F
:1067A800FF4DF8FF2011030000A501FF6754FF50BB
:1067B80086000000FF4DF8FF2011020000C701FF0E
:1067C800675EFF5086000000FF4DF8FF20110200B1
:1067D80000AC01FF6768FF5086000000FF4DF8FF1E
:1067E8002011020000AE01FF6772FF508600000012
:1067F800FF4DF8FF2011020000A401FF677CFF5045
:1068080086000000FF4DF8FF201100010101010181
:10681800010202020202020303030303060606063C
:106828000606040200030502000306020003070827
:10683800063F0802000309020003010300000000EC
:10684800900102010300000000300102040300006F
:1068580000004001020C000000006001023000004E
:1068680000001001020006000000200102010300E0
:1068780000000040010201030000000010040101B3
:106888000300000000200401FF6842FF684BFF6816
:106898007EFF6854FF6887FF6875060044AC0000F7
:1068A80044AC00000000000080BB000080BB00007A
:1068B800000000008858010088580100000000000E
:1068C80000770100007701000000000010B102000D
:1068D80010B102000000000000EE020000EE02000D
:1068E80000000000060044AC000044AC00000000BA
:1068F800000080BB000080BB00000000000088583A
:1069080001008858010000000000007701000077AE
:1069180001000000000010B1020010B102000000E8
:10692800000000EE020000EE02000000000002007D
:1069380044AC000044AC00000000000080BB000034
:1069480080BB00000000000012FF679A13FF67AECB
:1069580014FF67C215FF67EA16FF67D617FF67FEC1
:106968000D01810000000100020D028100000001FC
:1069780000020D03810000000100020D04810000E7
:10698800000100020D05810000000100020D0681D2
:106998000000000100020D07810000000100020D47
:1069A80008810000000100020F0181000000008042
:1069B800030F02810000000080031001F4000C00A6
:1069C8000080041002F4000C000080043007300836
:1069D800300A300B300D300E301030119E059E06F7
:1069E8009A089A070D0E0F10111000007D00002064
:1069F80000AC44082C00BB80103000FA001840019D
:106A080058882058017700286002B11030B002EE93
:106A18000038C0001F404008003E804810040000B5
:106A28000583330600000800000B06660C000016FC
:106A38000CCD180000010000020000C0B0C0C0B0BA
:106A4800C0B0C0C0C0C0B0C0C0B0C0B0C0C0C0C07E
:106A5800B0C0C0B0C0B0C0C0C0C0B0C0C0B0C0B08E
:106A6800C0C0C090849090849084909090908490BE
:106A780090849084909090C0B0C0C0B0C0B0C0C0A6
:106A8800C0C0B0C0C0B0C0B0C0C0C0C0B0C0C0B04E
:106A9800C0B0C0C0C0C0B0C0C0B0C0B0C0C0C0C02E
:106AA800B0C0C0B0C0B0C0C0C0C0B0C0C0B0C0B03E
:106AB800C0C0C0908490908490849090909084906E
:106AC80090849084909090C0B0C0C0B0C0B0C0C056
:106AD800C0C0B0C0C0B0C0B0C0C0C000010001009C
:106AE8001700010002001705FF6B3FFF5EC5FF4C52
:106AF8008E06FF6B53FF5EC5FF4C8E07FF6B67FF6B
:106B08005EC5FF4C8E88FF6B7BFF5EC5FF4C8E8990
:106B1800FF6B8FFF5EC5FF4C8E8AFF6BA3FF5EC5C0
:106B2800FF4C8E0000000000000000000000000084
:106B380000FF6288FF62B2040000AD01FF6AEFFF48
:106B48005CBE000000000000000000030000A5017A
:106B5800FF6AF9FF5CBE00000000000000000002B0
:106B68000000C701FF6B03FF5CBE000000000000CF
:106B7800000000020000AC01FF6B0DFF5CBE0000CE
:106B880000000000000000010000AE01FF6B17FFCD
:106B98005CBE000000000000000000010000A4012D
:106BA800FF6B21FF5CBE0000000000000000000039
:106BB80001010101010102020202020203030303AF
:106BC80003FF6786FF679AFF67AEFF67C2FF67EA42
:106BD800FF67D6FF67FEFF6CEBFF203AFF204CFFF4
:106BE8002056FF25ECFF311A08FF6BC9FF66CDFF61
:106BF8006647FF5118FF56CFFF203AFF204CFF256C
:106C0800ECFF2056FF311A08FF6BC9FF66CDFF66FF
:106C180047FF5118FF56CFFF6B2BFF6B53FF6BA33A
:106C2800FF6B2BFF6B3FFF6B7BFF6B2BFF6B67FFD4
:106C38006B8FFF6CEBFF2903FF2915FF291FFF2D21
:106C4800A0FF311A0AFF6C1FFF66CDFF6647FF5190
:106C580018FF56CFFF2903FF2915FF2DA0FF291F75
:106C6800FF311A0AFF6C1FFF66CDFF6647FF5118F8
:106C7800FF56CF01FF6CA300000000000082FF6CEC
:106C8800A300000000000000000000000000000059
:106C980000000000000000000000000000000002EA
:106CA800FF6C7B00000000000000000000000003F3
:106CB80003030302020303020302000001000100B0
:106CC80001010100010105020300000203030102A2
:106CD80003030303030202030184FF6CEB000000BB
:106CE8000000000000000001FF6CE1000000FF63ED
:076CF80052FF5A63FF54A193
:08000001663203020D8C01417F